{
  "_format": "hh-sol-artifact-1",
  "contractName": "RandomIPFSNFT",
  "sourceName": "contracts/RandomIPFSNFT.sol",
  "abi": [
    {
      "inputs": [
        {
          "internalType": "address",
          "name": "vrfCoordinatorAddress",
          "type": "address"
        },
        {
          "internalType": "uint64",
          "name": "subscriptionId",
          "type": "uint64"
        },
        {
          "internalType": "bytes32",
          "name": "keyHash",
          "type": "bytes32"
        },
        {
          "internalType": "uint32",
          "name": "callbackGasLimit",
          "type": "uint32"
        },
        {
          "internalType": "string[]",
          "name": "nftTokenURIs",
          "type": "string[]"
        },
        {
          "internalType": "uint256",
          "name": "mintFee",
          "type": "uint256"
        }
      ],
      "stateMutability": "nonpayable",
      "type": "constructor"
    },
    {
      "inputs": [
        {
          "internalType": "address",
          "name": "have",
          "type": "address"
        },
        {
          "internalType": "address",
          "name": "want",
          "type": "address"
        }
      ],
      "name": "OnlyCoordinatorCanFulfill",
      "type": "error"
    },
    {
      "inputs": [],
      "name": "RandomIPFSNFT__NotEnoughETHEntered",
      "type": "error"
    },
    {
      "inputs": [],
      "name": "RandomIPFSNFT__RangeOutOfBounds",
      "type": "error"
    },
    {
      "inputs": [],
      "name": "RandomIPFSNFT__TransferFailed",
      "type": "error"
    },
    {
      "anonymous": false,
      "inputs": [
        {
          "indexed": true,
          "internalType": "address",
          "name": "owner",
          "type": "address"
        },
        {
          "indexed": true,
          "internalType": "address",
          "name": "approved",
          "type": "address"
        },
        {
          "indexed": true,
          "internalType": "uint256",
          "name": "tokenId",
          "type": "uint256"
        }
      ],
      "name": "Approval",
      "type": "event"
    },
    {
      "anonymous": false,
      "inputs": [
        {
          "indexed": true,
          "internalType": "address",
          "name": "owner",
          "type": "address"
        },
        {
          "indexed": true,
          "internalType": "address",
          "name": "operator",
          "type": "address"
        },
        {
          "indexed": false,
          "internalType": "bool",
          "name": "approved",
          "type": "bool"
        }
      ],
      "name": "ApprovalForAll",
      "type": "event"
    },
    {
      "anonymous": false,
      "inputs": [
        {
          "indexed": false,
          "internalType": "enum RandomIPFSNFT.Breed",
          "name": "nftBreed",
          "type": "uint8"
        },
        {
          "indexed": false,
          "internalType": "address",
          "name": "minter",
          "type": "address"
        }
      ],
      "name": "NftMinted",
      "type": "event"
    },
    {
      "anonymous": false,
      "inputs": [
        {
          "indexed": true,
          "internalType": "uint256",
          "name": "requestId",
          "type": "uint256"
        },
        {
          "indexed": false,
          "internalType": "address",
          "name": "requester",
          "type": "address"
        }
      ],
      "name": "NftRequested",
      "type": "event"
    },
    {
      "anonymous": false,
      "inputs": [
        {
          "indexed": true,
          "internalType": "address",
          "name": "previousOwner",
          "type": "address"
        },
        {
          "indexed": true,
          "internalType": "address",
          "name": "newOwner",
          "type": "address"
        }
      ],
      "name": "OwnershipTransferred",
      "type": "event"
    },
    {
      "anonymous": false,
      "inputs": [
        {
          "indexed": true,
          "internalType": "address",
          "name": "from",
          "type": "address"
        },
        {
          "indexed": true,
          "internalType": "address",
          "name": "to",
          "type": "address"
        },
        {
          "indexed": true,
          "internalType": "uint256",
          "name": "tokenId",
          "type": "uint256"
        }
      ],
      "name": "Transfer",
      "type": "event"
    },
    {
      "inputs": [
        {
          "internalType": "address",
          "name": "to",
          "type": "address"
        },
        {
          "internalType": "uint256",
          "name": "tokenId",
          "type": "uint256"
        }
      ],
      "name": "approve",
      "outputs": [],
      "stateMutability": "nonpayable",
      "type": "function"
    },
    {
      "inputs": [
        {
          "internalType": "address",
          "name": "owner",
          "type": "address"
        }
      ],
      "name": "balanceOf",
      "outputs": [
        {
          "internalType": "uint256",
          "name": "",
          "type": "uint256"
        }
      ],
      "stateMutability": "view",
      "type": "function"
    },
    {
      "inputs": [
        {
          "internalType": "uint256",
          "name": "tokenId",
          "type": "uint256"
        }
      ],
      "name": "getApproved",
      "outputs": [
        {
          "internalType": "address",
          "name": "",
          "type": "address"
        }
      ],
      "stateMutability": "view",
      "type": "function"
    },
    {
      "inputs": [],
      "name": "getChanceArray",
      "outputs": [
        {
          "internalType": "uint256[3]",
          "name": "",
          "type": "uint256[3]"
        }
      ],
      "stateMutability": "pure",
      "type": "function"
    },
    {
      "inputs": [],
      "name": "getMintFee",
      "outputs": [
        {
          "internalType": "uint256",
          "name": "",
          "type": "uint256"
        }
      ],
      "stateMutability": "view",
      "type": "function"
    },
    {
      "inputs": [
        {
          "internalType": "uint256",
          "name": "moddedRng",
          "type": "uint256"
        }
      ],
      "name": "getRarityFromRandomNumber",
      "outputs": [
        {
          "internalType": "enum RandomIPFSNFT.Breed",
          "name": "",
          "type": "uint8"
        }
      ],
      "stateMutability": "pure",
      "type": "function"
    },
    {
      "inputs": [],
      "name": "getTokenCounter",
      "outputs": [
        {
          "internalType": "uint256",
          "name": "",
          "type": "uint256"
        }
      ],
      "stateMutability": "view",
      "type": "function"
    },
    {
      "inputs": [
        {
          "internalType": "uint256",
          "name": "index",
          "type": "uint256"
        }
      ],
      "name": "getTokenUri",
      "outputs": [
        {
          "internalType": "string",
          "name": "",
          "type": "string"
        }
      ],
      "stateMutability": "view",
      "type": "function"
    },
    {
      "inputs": [
        {
          "internalType": "address",
          "name": "owner",
          "type": "address"
        },
        {
          "internalType": "address",
          "name": "operator",
          "type": "address"
        }
      ],
      "name": "isApprovedForAll",
      "outputs": [
        {
          "internalType": "bool",
          "name": "",
          "type": "bool"
        }
      ],
      "stateMutability": "view",
      "type": "function"
    },
    {
      "inputs": [],
      "name": "name",
      "outputs": [
        {
          "internalType": "string",
          "name": "",
          "type": "string"
        }
      ],
      "stateMutability": "view",
      "type": "function"
    },
    {
      "inputs": [],
      "name": "owner",
      "outputs": [
        {
          "internalType": "address",
          "name": "",
          "type": "address"
        }
      ],
      "stateMutability": "view",
      "type": "function"
    },
    {
      "inputs": [
        {
          "internalType": "uint256",
          "name": "tokenId",
          "type": "uint256"
        }
      ],
      "name": "ownerOf",
      "outputs": [
        {
          "internalType": "address",
          "name": "",
          "type": "address"
        }
      ],
      "stateMutability": "view",
      "type": "function"
    },
    {
      "inputs": [
        {
          "internalType": "uint256",
          "name": "requestId",
          "type": "uint256"
        },
        {
          "internalType": "uint256[]",
          "name": "randomWords",
          "type": "uint256[]"
        }
      ],
      "name": "rawFulfillRandomWords",
      "outputs": [],
      "stateMutability": "nonpayable",
      "type": "function"
    },
    {
      "inputs": [],
      "name": "renounceOwnership",
      "outputs": [],
      "stateMutability": "nonpayable",
      "type": "function"
    },
    {
      "inputs": [],
      "name": "requestNFT",
      "outputs": [
        {
          "internalType": "uint256",
          "name": "requestId",
          "type": "uint256"
        }
      ],
      "stateMutability": "payable",
      "type": "function"
    },
    {
      "inputs": [
        {
          "internalType": "uint256",
          "name": "",
          "type": "uint256"
        }
      ],
      "name": "s_requestIdToSender",
      "outputs": [
        {
          "internalType": "address",
          "name": "",
          "type": "address"
        }
      ],
      "stateMutability": "view",
      "type": "function"
    },
    {
      "inputs": [
        {
          "internalType": "address",
          "name": "from",
          "type": "address"
        },
        {
          "internalType": "address",
          "name": "to",
          "type": "address"
        },
        {
          "internalType": "uint256",
          "name": "tokenId",
          "type": "uint256"
        }
      ],
      "name": "safeTransferFrom",
      "outputs": [],
      "stateMutability": "nonpayable",
      "type": "function"
    },
    {
      "inputs": [
        {
          "internalType": "address",
          "name": "from",
          "type": "address"
        },
        {
          "internalType": "address",
          "name": "to",
          "type": "address"
        },
        {
          "internalType": "uint256",
          "name": "tokenId",
          "type": "uint256"
        },
        {
          "internalType": "bytes",
          "name": "data",
          "type": "bytes"
        }
      ],
      "name": "safeTransferFrom",
      "outputs": [],
      "stateMutability": "nonpayable",
      "type": "function"
    },
    {
      "inputs": [
        {
          "internalType": "address",
          "name": "operator",
          "type": "address"
        },
        {
          "internalType": "bool",
          "name": "approved",
          "type": "bool"
        }
      ],
      "name": "setApprovalForAll",
      "outputs": [],
      "stateMutability": "nonpayable",
      "type": "function"
    },
    {
      "inputs": [
        {
          "internalType": "bytes4",
          "name": "interfaceId",
          "type": "bytes4"
        }
      ],
      "name": "supportsInterface",
      "outputs": [
        {
          "internalType": "bool",
          "name": "",
          "type": "bool"
        }
      ],
      "stateMutability": "view",
      "type": "function"
    },
    {
      "inputs": [],
      "name": "symbol",
      "outputs": [
        {
          "internalType": "string",
          "name": "",
          "type": "string"
        }
      ],
      "stateMutability": "view",
      "type": "function"
    },
    {
      "inputs": [
        {
          "internalType": "uint256",
          "name": "tokenId",
          "type": "uint256"
        }
      ],
      "name": "tokenURI",
      "outputs": [
        {
          "internalType": "string",
          "name": "",
          "type": "string"
        }
      ],
      "stateMutability": "view",
      "type": "function"
    },
    {
      "inputs": [
        {
          "internalType": "address",
          "name": "from",
          "type": "address"
        },
        {
          "internalType": "address",
          "name": "to",
          "type": "address"
        },
        {
          "internalType": "uint256",
          "name": "tokenId",
          "type": "uint256"
        }
      ],
      "name": "transferFrom",
      "outputs": [],
      "stateMutability": "nonpayable",
      "type": "function"
    },
    {
      "inputs": [
        {
          "internalType": "address",
          "name": "newOwner",
          "type": "address"
        }
      ],
      "name": "transferOwnership",
      "outputs": [],
      "stateMutability": "nonpayable",
      "type": "function"
    },
    {
      "inputs": [],
      "name": "withdraw",
      "outputs": [],
      "stateMutability": "nonpayable",
      "type": "function"
    }
  ],
  "bytecode": "0x6101406040523480156200001257600080fd5b50604051620042e1380380620042e1833981810160405281019062000038919062000822565b6040518060400160405280600f81526020017f52616e646f6d2049504653204e465400000000000000000000000000000000008152506040518060400160405280600381526020017f52494e0000000000000000000000000000000000000000000000000000000000815250878073ffffffffffffffffffffffffffffffffffffffff1660808173ffffffffffffffffffffffffffffffffffffffff1660601b81525050508160009080519060200190620000f5929190620002a3565b5080600190805190602001906200010e929190620002a3565b5050506200013162000125620001d560201b60201c565b620001dd60201b60201c565b8573ffffffffffffffffffffffffffffffffffffffff1660a08173ffffffffffffffffffffffffffffffffffffffff1660601b815250508467ffffffffffffffff1660c08167ffffffffffffffff1660c01b815250508360e081815250508263ffffffff166101008163ffffffff1660e01b8152505081600a9080519060200190620001bf92919062000334565b5080610120818152505050505050505062000942565b600033905090565b6000600760009054906101000a900473ffffffffffffffffffffffffffffffffffffffff16905081600760006101000a81548173ffffffffffffffffffffffffffffffffffffffff021916908373ffffffffffffffffffffffffffffffffffffffff1602179055508173ffffffffffffffffffffffffffffffffffffffff168173ffffffffffffffffffffffffffffffffffffffff167f8be0079c531659141344cd1fd0a4f28419497f9722a3daafe3b4186f6b6457e060405160405180910390a35050565b828054620002b1906200090c565b90600052602060002090601f016020900481019282620002d5576000855562000321565b82601f10620002f057805160ff191683800117855562000321565b8280016001018555821562000321579182015b828111156200032057825182559160200191906001019062000303565b5b5090506200033091906200039b565b5090565b82805482825590600052602060002090810192821562000388579160200282015b828111156200038757825182908051906020019062000376929190620002a3565b509160200191906001019062000355565b5b509050620003979190620003ba565b5090565b5b80821115620003b65760008160009055506001016200039c565b5090565b5b80821115620003de5760008181620003d49190620003e2565b50600101620003bb565b5090565b508054620003f0906200090c565b6000825580601f1062000404575062000425565b601f0160209004906000526020600020908101906200042491906200039b565b5b50565b6000604051905090565b600080fd5b600080fd5b600073ffffffffffffffffffffffffffffffffffffffff82169050919050565b600062000469826200043c565b9050919050565b6200047b816200045c565b81146200048757600080fd5b50565b6000815190506200049b8162000470565b92915050565b600067ffffffffffffffff82169050919050565b620004c081620004a1565b8114620004cc57600080fd5b50565b600081519050620004e081620004b5565b92915050565b6000819050919050565b620004fb81620004e6565b81146200050757600080fd5b50565b6000815190506200051b81620004f0565b92915050565b600063ffffffff82169050919050565b6200053c8162000521565b81146200054857600080fd5b50565b6000815190506200055c8162000531565b92915050565b600080fd5b6000601f19601f8301169050919050565b7f4e487b7100000000000000000000000000000000000000000000000000000000600052604160045260246000fd5b620005b28262000567565b810181811067ffffffffffffffff82111715620005d457620005d362000578565b5b80604052505050565b6000620005e962000428565b9050620005f78282620005a7565b919050565b600067ffffffffffffffff8211156200061a576200061962000578565b5b602082029050602081019050919050565b600080fd5b600080fd5b600067ffffffffffffffff82111562000653576200065262000578565b5b6200065e8262000567565b9050602081019050919050565b60005b838110156200068b5780820151818401526020810190506200066e565b838111156200069b576000848401525b50505050565b6000620006b8620006b28462000635565b620005dd565b905082815260208101848484011115620006d757620006d662000630565b5b620006e48482856200066b565b509392505050565b600082601f83011262000704576200070362000562565b5b815162000716848260208601620006a1565b91505092915050565b6000620007366200073084620005fc565b620005dd565b905080838252602082019050602084028301858111156200075c576200075b6200062b565b5b835b81811015620007aa57805167ffffffffffffffff81111562000785576200078462000562565b5b808601620007948982620006ec565b855260208501945050506020810190506200075e565b5050509392505050565b600082601f830112620007cc57620007cb62000562565b5b8151620007de8482602086016200071f565b91505092915050565b6000819050919050565b620007fc81620007e7565b81146200080857600080fd5b50565b6000815190506200081c81620007f1565b92915050565b60008060008060008060c0878903121562000842576200084162000432565b5b60006200085289828a016200048a565b96505060206200086589828a01620004cf565b95505060406200087889828a016200050a565b94505060606200088b89828a016200054b565b935050608087015167ffffffffffffffff811115620008af57620008ae62000437565b5b620008bd89828a01620007b4565b92505060a0620008d089828a016200080b565b9150509295509295509295565b7f4e487b7100000000000000000000000000000000000000000000000000000000600052602260045260246000fd5b600060028204905060018216806200092557607f821691505b602082108114156200093c576200093b620008dd565b5b50919050565b60805160601c60a05160601c60c05160c01c60e0516101005160e01c61012051613935620009ac60003960008181610c7a0152610ca201526000610d7c01526000610d3801526000610d5901526000610cfc0152600081816108d1015261092501526139356000f3fe6080604052600436106101665760003560e01c8063715018a6116100d1578063a22cb4651161008a578063c87b56dd11610064578063c87b56dd1461051d578063cfab9f7d1461055a578063e985e9c514610597578063f2fde38b146105d457610166565b8063a22cb4651461048e578063a36f573b146104b7578063b88d4fde146104f457610166565b8063715018a61461039b5780637a5caab3146103b25780637abd25d1146103dd5780638ad91345146103fb5780638da5cb5b1461043857806395d89b411461046357610166565b80633ccfd60b116101235780633ccfd60b1461028b57806342842e0e146102a25780635dacf5f4146102cb5780636352211e146102f65780636e02007d1461033357806370a082311461035e57610166565b806301ffc9a71461016b57806306fdde03146101a8578063081812fc146101d3578063095ea7b3146102105780631fe543e31461023957806323b872dd14610262575b600080fd5b34801561017757600080fd5b50610192600480360381019061018d91906124e3565b6105fd565b60405161019f919061252b565b60405180910390f35b3480156101b457600080fd5b506101bd6106df565b6040516101ca91906125df565b60405180910390f35b3480156101df57600080fd5b506101fa60048036038101906101f59190612637565b610771565b60405161020791906126a5565b60405180910390f35b34801561021c57600080fd5b50610237600480360381019061023291906126ec565b6107b7565b005b34801561024557600080fd5b50610260600480360381019061025b9190612874565b6108cf565b005b34801561026e57600080fd5b50610289600480360381019061028491906128d0565b61098f565b005b34801561029757600080fd5b506102a06109ef565b005b3480156102ae57600080fd5b506102c960048036038101906102c491906128d0565b610aa3565b005b3480156102d757600080fd5b506102e0610ac3565b6040516102ed91906129ce565b60405180910390f35b34801561030257600080fd5b5061031d60048036038101906103189190612637565b610aee565b60405161032a91906126a5565b60405180910390f35b34801561033f57600080fd5b50610348610ba0565b60405161035591906129f8565b60405180910390f35b34801561036a57600080fd5b5061038560048036038101906103809190612a13565b610baa565b60405161039291906129f8565b60405180910390f35b3480156103a757600080fd5b506103b0610c62565b005b3480156103be57600080fd5b506103c7610c76565b6040516103d491906129f8565b60405180910390f35b6103e5610c9e565b6040516103f291906129f8565b60405180910390f35b34801561040757600080fd5b50610422600480360381019061041d9190612637565b610e9e565b60405161042f91906125df565b60405180910390f35b34801561044457600080fd5b5061044d610f4e565b60405161045a91906126a5565b60405180910390f35b34801561046f57600080fd5b50610478610f78565b60405161048591906125df565b60405180910390f35b34801561049a57600080fd5b506104b560048036038101906104b09190612a6c565b61100a565b005b3480156104c357600080fd5b506104de60048036038101906104d99190612637565b611020565b6040516104eb91906126a5565b60405180910390f35b34801561050057600080fd5b5061051b60048036038101906105169190612b61565b611053565b005b34801561052957600080fd5b50610544600480360381019061053f9190612637565b6110b5565b60405161055191906125df565b60405180910390f35b34801561056657600080fd5b50610581600480360381019061057c9190612637565b6111c8565b60405161058e9190612c5b565b60405180910390f35b3480156105a357600080fd5b506105be60048036038101906105b99190612c76565b6112aa565b6040516105cb919061252b565b60405180910390f35b3480156105e057600080fd5b506105fb60048036038101906105f69190612a13565b61133e565b005b60007f80ac58cd000000000000000000000000000000000000000000000000000000007bffffffffffffffffffffffffffffffffffffffffffffffffffffffff1916827bffffffffffffffffffffffffffffffffffffffffffffffffffffffff191614806106c857507f5b5e139f000000000000000000000000000000000000000000000000000000007bffffffffffffffffffffffffffffffffffffffffffffffffffffffff1916827bffffffffffffffffffffffffffffffffffffffffffffffffffffffff1916145b806106d857506106d7826113c2565b5b9050919050565b6060600080546106ee90612ce5565b80601f016020809104026020016040519081016040528092919081815260200182805461071a90612ce5565b80156107675780601f1061073c57610100808354040283529160200191610767565b820191906000526020600020905b81548152906001019060200180831161074a57829003601f168201915b5050505050905090565b600061077c8261142c565b6004600083815260200190815260200160002060009054906101000a900473ffffffffffffffffffffffffffffffffffffffff169050919050565b60006107c282610aee565b90508073ffffffffffffffffffffffffffffffffffffffff168373ffffffffffffffffffffffffffffffffffffffff161415610833576040517f08c379a000000000000000000000000000000000000000000000000000000000815260040161082a90612d89565b60405180910390fd5b8073ffffffffffffffffffffffffffffffffffffffff16610852611477565b73ffffffffffffffffffffffffffffffffffffffff16148061088157506108808161087b611477565b6112aa565b5b6108c0576040517f08c379a00000000000000000000000000000000000000000000000000000000081526004016108b790612e1b565b60405180910390fd5b6108ca838361147f565b505050565b7f000000000000000000000000000000000000000000000000000000000000000073ffffffffffffffffffffffffffffffffffffffff163373ffffffffffffffffffffffffffffffffffffffff161461098157337f00000000000000000000000000000000000000000000000000000000000000006040517f1cf993f4000000000000000000000000000000000000000000000000000000008152600401610978929190612e3b565b60405180910390fd5b61098b8282611538565b5050565b6109a061099a611477565b826116d2565b6109df576040517f08c379a00000000000000000000000000000000000000000000000000000000081526004016109d690612ed6565b60405180910390fd5b6109ea838383611767565b505050565b6109f76119ce565b600047905060003373ffffffffffffffffffffffffffffffffffffffff1682604051610a2290612f27565b60006040518083038185875af1925050503d8060008114610a5f576040519150601f19603f3d011682016040523d82523d6000602084013e610a64565b606091505b5050905080610a9f576040517fff2f968b00000000000000000000000000000000000000000000000000000000815260040160405180910390fd5b5050565b610abe83838360405180602001604052806000815250611053565b505050565b610acb6123b2565b6040518060600160405280600a8152602001601e81526020016064815250905090565b6000806002600084815260200190815260200160002060009054906101000a900473ffffffffffffffffffffffffffffffffffffffff169050600073ffffffffffffffffffffffffffffffffffffffff168173ffffffffffffffffffffffffffffffffffffffff161415610b97576040517f08c379a0000000000000000000000000000000000000000000000000000000008152600401610b8e90612f88565b60405180910390fd5b80915050919050565b6000600954905090565b60008073ffffffffffffffffffffffffffffffffffffffff168273ffffffffffffffffffffffffffffffffffffffff161415610c1b576040517f08c379a0000000000000000000000000000000000000000000000000000000008152600401610c129061301a565b60405180910390fd5b600360008373ffffffffffffffffffffffffffffffffffffffff1673ffffffffffffffffffffffffffffffffffffffff168152602001908152602001600020549050919050565b610c6a6119ce565b610c746000611a4c565b565b60007f0000000000000000000000000000000000000000000000000000000000000000905090565b60007f0000000000000000000000000000000000000000000000000000000000000000341015610cfa576040517f3b86e65c00000000000000000000000000000000000000000000000000000000815260040160405180910390fd5b7f000000000000000000000000000000000000000000000000000000000000000073ffffffffffffffffffffffffffffffffffffffff16635d3b1d307f00000000000000000000000000000000000000000000000000000000000000007f000000000000000000000000000000000000000000000000000000000000000060037f000000000000000000000000000000000000000000000000000000000000000060016040518663ffffffff1660e01b8152600401610dbd9594939291906130b2565b602060405180830381600087803b158015610dd757600080fd5b505af1158015610deb573d6000803e3d6000fd5b505050506040513d601f19601f82011682018060405250810190610e0f919061311a565b9050336008600083815260200190815260200160002060006101000a81548173ffffffffffffffffffffffffffffffffffffffff021916908373ffffffffffffffffffffffffffffffffffffffff160217905550807ff873236e6cc0ecc5be1a9a35c95ee5b8d1ac4cc7bfef0cc5060391d6cc98e26b33604051610e9391906126a5565b60405180910390a290565b6060600a8281548110610eb457610eb3613147565b5b906000526020600020018054610ec990612ce5565b80601f0160208091040260200160405190810160405280929190818152602001828054610ef590612ce5565b8015610f425780601f10610f1757610100808354040283529160200191610f42565b820191906000526020600020905b815481529060010190602001808311610f2557829003601f168201915b50505050509050919050565b6000600760009054906101000a900473ffffffffffffffffffffffffffffffffffffffff16905090565b606060018054610f8790612ce5565b80601f0160208091040260200160405190810160405280929190818152602001828054610fb390612ce5565b80156110005780601f10610fd557610100808354040283529160200191611000565b820191906000526020600020905b815481529060010190602001808311610fe357829003601f168201915b5050505050905090565b61101c611015611477565b8383611b12565b5050565b60086020528060005260406000206000915054906101000a900473ffffffffffffffffffffffffffffffffffffffff1681565b61106461105e611477565b836116d2565b6110a3576040517f08c379a000000000000000000000000000000000000000000000000000000000815260040161109a90612ed6565b60405180910390fd5b6110af84848484611c7f565b50505050565b60606110c08261142c565b60006006600084815260200190815260200160002080546110e090612ce5565b80601f016020809104026020016040519081016040528092919081815260200182805461110c90612ce5565b80156111595780601f1061112e57610100808354040283529160200191611159565b820191906000526020600020905b81548152906001019060200180831161113c57829003601f168201915b50505050509050600061116a611cdb565b90506000815114156111805781925050506111c3565b6000825111156111b557808260405160200161119d9291906131b2565b604051602081830303815290604052925050506111c3565b6111be84611cf2565b925050505b919050565b6000806000905060006111d9610ac3565b905060005b600381101561127257828510158015611218575081816003811061120557611204613147565b5b6020020151836112159190613205565b85105b1561123a578060028111156112305761122f612be4565b5b93505050506112a5565b81816003811061124d5761124c613147565b5b60200201518361125d9190613205565b9250808061126a9061325b565b9150506111de565b506040517f4b145a0700000000000000000000000000000000000000000000000000000000815260040160405180910390fd5b919050565b6000600560008473ffffffffffffffffffffffffffffffffffffffff1673ffffffffffffffffffffffffffffffffffffffff16815260200190815260200160002060008373ffffffffffffffffffffffffffffffffffffffff1673ffffffffffffffffffffffffffffffffffffffff16815260200190815260200160002060009054906101000a900460ff16905092915050565b6113466119ce565b600073ffffffffffffffffffffffffffffffffffffffff168173ffffffffffffffffffffffffffffffffffffffff1614156113b6576040517f08c379a00000000000000000000000000000000000000000000000000000000081526004016113ad90613316565b60405180910390fd5b6113bf81611a4c565b50565b60007f01ffc9a7000000000000000000000000000000000000000000000000000000007bffffffffffffffffffffffffffffffffffffffffffffffffffffffff1916827bffffffffffffffffffffffffffffffffffffffffffffffffffffffff1916149050919050565b61143581611d5a565b611474576040517f08c379a000000000000000000000000000000000000000000000000000000000815260040161146b90612f88565b60405180910390fd5b50565b600033905090565b816004600083815260200190815260200160002060006101000a81548173ffffffffffffffffffffffffffffffffffffffff021916908373ffffffffffffffffffffffffffffffffffffffff160217905550808273ffffffffffffffffffffffffffffffffffffffff166114f283610aee565b73ffffffffffffffffffffffffffffffffffffffff167f8c5be1e5ebec7d5bd14f71427d1e84f3dd0314c0f7b2291e5b200ac8c7c3b92560405160405180910390a45050565b60006008600084815260200190815260200160002060009054906101000a900473ffffffffffffffffffffffffffffffffffffffff16905060006009549050600060648460008151811061158f5761158e613147565b5b60200260200101516115a19190613365565b905060006115ae826111c8565b905060016009546115bf9190613205565b6009819055506115cf8484611dc6565b61169183600a8360028111156115e8576115e7612be4565b5b815481106115f9576115f8613147565b5b90600052602060002001805461160e90612ce5565b80601f016020809104026020016040519081016040528092919081815260200182805461163a90612ce5565b80156116875780601f1061165c57610100808354040283529160200191611687565b820191906000526020600020905b81548152906001019060200180831161166a57829003601f168201915b5050505050611de4565b7f8a269f26b688e110e9cbd887d163dab35cae678fa353a0292de532c0cac1ecdc81856040516116c2929190613396565b60405180910390a1505050505050565b6000806116de83610aee565b90508073ffffffffffffffffffffffffffffffffffffffff168473ffffffffffffffffffffffffffffffffffffffff161480611720575061171f81856112aa565b5b8061175e57508373ffffffffffffffffffffffffffffffffffffffff1661174684610771565b73ffffffffffffffffffffffffffffffffffffffff16145b91505092915050565b8273ffffffffffffffffffffffffffffffffffffffff1661178782610aee565b73ffffffffffffffffffffffffffffffffffffffff16146117dd576040517f08c379a00000000000000000000000000000000000000000000000000000000081526004016117d490613431565b60405180910390fd5b600073ffffffffffffffffffffffffffffffffffffffff168273ffffffffffffffffffffffffffffffffffffffff16141561184d576040517f08c379a0000000000000000000000000000000000000000000000000000000008152600401611844906134c3565b60405180910390fd5b611858838383611e58565b61186360008261147f565b6001600360008573ffffffffffffffffffffffffffffffffffffffff1673ffffffffffffffffffffffffffffffffffffffff16815260200190815260200160002060008282546118b391906134e3565b925050819055506001600360008473ffffffffffffffffffffffffffffffffffffffff1673ffffffffffffffffffffffffffffffffffffffff168152602001908152602001600020600082825461190a9190613205565b92505081905550816002600083815260200190815260200160002060006101000a81548173ffffffffffffffffffffffffffffffffffffffff021916908373ffffffffffffffffffffffffffffffffffffffff160217905550808273ffffffffffffffffffffffffffffffffffffffff168473ffffffffffffffffffffffffffffffffffffffff167fddf252ad1be2c89b69c2b068fc378daa952ba7f163c4a11628f55a4df523b3ef60405160405180910390a46119c9838383611e5d565b505050565b6119d6611477565b73ffffffffffffffffffffffffffffffffffffffff166119f4610f4e565b73ffffffffffffffffffffffffffffffffffffffff1614611a4a576040517f08c379a0000000000000000000000000000000000000000000000000000000008152600401611a4190613563565b60405180910390fd5b565b6000600760009054906101000a900473ffffffffffffffffffffffffffffffffffffffff16905081600760006101000a81548173ffffffffffffffffffffffffffffffffffffffff021916908373ffffffffffffffffffffffffffffffffffffffff1602179055508173ffffffffffffffffffffffffffffffffffffffff168173ffffffffffffffffffffffffffffffffffffffff167f8be0079c531659141344cd1fd0a4f28419497f9722a3daafe3b4186f6b6457e060405160405180910390a35050565b8173ffffffffffffffffffffffffffffffffffffffff168373ffffffffffffffffffffffffffffffffffffffff161415611b81576040517f08c379a0000000000000000000000000000000000000000000000000000000008152600401611b78906135cf565b60405180910390fd5b80600560008573ffffffffffffffffffffffffffffffffffffffff1673ffffffffffffffffffffffffffffffffffffffff16815260200190815260200160002060008473ffffffffffffffffffffffffffffffffffffffff1673ffffffffffffffffffffffffffffffffffffffff16815260200190815260200160002060006101000a81548160ff0219169083151502179055508173ffffffffffffffffffffffffffffffffffffffff168373ffffffffffffffffffffffffffffffffffffffff167f17307eab39ab6107e8899845ad3d59bd9653f200f220920489ca2b5937696c3183604051611c72919061252b565b60405180910390a3505050565b611c8a848484611767565b611c9684848484611e62565b611cd5576040517f08c379a0000000000000000000000000000000000000000000000000000000008152600401611ccc90613661565b60405180910390fd5b50505050565b606060405180602001604052806000815250905090565b6060611cfd8261142c565b6000611d07611cdb565b90506000815111611d275760405180602001604052806000815250611d52565b80611d3184611ff9565b604051602001611d429291906131b2565b6040516020818303038152906040525b915050919050565b60008073ffffffffffffffffffffffffffffffffffffffff166002600084815260200190815260200160002060009054906101000a900473ffffffffffffffffffffffffffffffffffffffff1673ffffffffffffffffffffffffffffffffffffffff1614159050919050565b611de082826040518060200160405280600081525061215a565b5050565b611ded82611d5a565b611e2c576040517f08c379a0000000000000000000000000000000000000000000000000000000008152600401611e23906136f3565b60405180910390fd5b80600660008481526020019081526020016000209080519060200190611e539291906123d4565b505050565b505050565b505050565b6000611e838473ffffffffffffffffffffffffffffffffffffffff166121b5565b15611fec578373ffffffffffffffffffffffffffffffffffffffff1663150b7a02611eac611477565b8786866040518563ffffffff1660e01b8152600401611ece9493929190613768565b602060405180830381600087803b158015611ee857600080fd5b505af1925050508015611f1957506040513d601f19601f82011682018060405250810190611f1691906137c9565b60015b611f9c573d8060008114611f49576040519150601f19603f3d011682016040523d82523d6000602084013e611f4e565b606091505b50600081511415611f94576040517f08c379a0000000000000000000000000000000000000000000000000000000008152600401611f8b90613661565b60405180910390fd5b805181602001fd5b63150b7a0260e01b7bffffffffffffffffffffffffffffffffffffffffffffffffffffffff1916817bffffffffffffffffffffffffffffffffffffffffffffffffffffffff191614915050611ff1565b600190505b949350505050565b60606000821415612041576040518060400160405280600181526020017f30000000000000000000000000000000000000000000000000000000000000008152509050612155565b600082905060005b6000821461207357808061205c9061325b565b915050600a8261206c91906137f6565b9150612049565b60008167ffffffffffffffff81111561208f5761208e612731565b5b6040519080825280601f01601f1916602001820160405280156120c15781602001600182028036833780820191505090505b5090505b6000851461214e576001826120da91906134e3565b9150600a856120e99190613365565b60306120f59190613205565b60f81b81838151811061210b5761210a613147565b5b60200101907effffffffffffffffffffffffffffffffffffffffffffffffffffffffffffff1916908160001a905350600a8561214791906137f6565b94506120c5565b8093505050505b919050565b61216483836121d8565b6121716000848484611e62565b6121b0576040517f08c379a00000000000000000000000000000000000000000000000000000000081526004016121a790613661565b60405180910390fd5b505050565b6000808273ffffffffffffffffffffffffffffffffffffffff163b119050919050565b600073ffffffffffffffffffffffffffffffffffffffff168273ffffffffffffffffffffffffffffffffffffffff161415612248576040517f08c379a000000000000000000000000000000000000000000000000000000000815260040161223f90613873565b60405180910390fd5b61225181611d5a565b15612291576040517f08c379a0000000000000000000000000000000000000000000000000000000008152600401612288906138df565b60405180910390fd5b61229d60008383611e58565b6001600360008473ffffffffffffffffffffffffffffffffffffffff1673ffffffffffffffffffffffffffffffffffffffff16815260200190815260200160002060008282546122ed9190613205565b92505081905550816002600083815260200190815260200160002060006101000a81548173ffffffffffffffffffffffffffffffffffffffff021916908373ffffffffffffffffffffffffffffffffffffffff160217905550808273ffffffffffffffffffffffffffffffffffffffff16600073ffffffffffffffffffffffffffffffffffffffff167fddf252ad1be2c89b69c2b068fc378daa952ba7f163c4a11628f55a4df523b3ef60405160405180910390a46123ae60008383611e5d565b5050565b6040518060600160405280600390602082028036833780820191505090505090565b8280546123e090612ce5565b90600052602060002090601f0160209004810192826124025760008555612449565b82601f1061241b57805160ff1916838001178555612449565b82800160010185558215612449579182015b8281111561244857825182559160200191906001019061242d565b5b509050612456919061245a565b5090565b5b8082111561247357600081600090555060010161245b565b5090565b6000604051905090565b600080fd5b600080fd5b60007fffffffff0000000000000000000000000000000000000000000000000000000082169050919050565b6124c08161248b565b81146124cb57600080fd5b50565b6000813590506124dd816124b7565b92915050565b6000602082840312156124f9576124f8612481565b5b6000612507848285016124ce565b91505092915050565b60008115159050919050565b61252581612510565b82525050565b6000602082019050612540600083018461251c565b92915050565b600081519050919050565b600082825260208201905092915050565b60005b83811015612580578082015181840152602081019050612565565b8381111561258f576000848401525b50505050565b6000601f19601f8301169050919050565b60006125b182612546565b6125bb8185612551565b93506125cb818560208601612562565b6125d481612595565b840191505092915050565b600060208201905081810360008301526125f981846125a6565b905092915050565b6000819050919050565b61261481612601565b811461261f57600080fd5b50565b6000813590506126318161260b565b92915050565b60006020828403121561264d5761264c612481565b5b600061265b84828501612622565b91505092915050565b600073ffffffffffffffffffffffffffffffffffffffff82169050919050565b600061268f82612664565b9050919050565b61269f81612684565b82525050565b60006020820190506126ba6000830184612696565b92915050565b6126c981612684565b81146126d457600080fd5b50565b6000813590506126e6816126c0565b92915050565b6000806040838503121561270357612702612481565b5b6000612711858286016126d7565b925050602061272285828601612622565b9150509250929050565b600080fd5b7f4e487b7100000000000000000000000000000000000000000000000000000000600052604160045260246000fd5b61276982612595565b810181811067ffffffffffffffff8211171561278857612787612731565b5b80604052505050565b600061279b612477565b90506127a78282612760565b919050565b600067ffffffffffffffff8211156127c7576127c6612731565b5b602082029050602081019050919050565b600080fd5b60006127f06127eb846127ac565b612791565b90508083825260208201905060208402830185811115612813576128126127d8565b5b835b8181101561283c57806128288882612622565b845260208401935050602081019050612815565b5050509392505050565b600082601f83011261285b5761285a61272c565b5b813561286b8482602086016127dd565b91505092915050565b6000806040838503121561288b5761288a612481565b5b600061289985828601612622565b925050602083013567ffffffffffffffff8111156128ba576128b9612486565b5b6128c685828601612846565b9150509250929050565b6000806000606084860312156128e9576128e8612481565b5b60006128f7868287016126d7565b9350506020612908868287016126d7565b925050604061291986828701612622565b9150509250925092565b600060039050919050565b600081905092915050565b6000819050919050565b61294c81612601565b82525050565b600061295e8383612943565b60208301905092915050565b6000602082019050919050565b61298081612923565b61298a818461292e565b925061299582612939565b8060005b838110156129c65781516129ad8782612952565b96506129b88361296a565b925050600181019050612999565b505050505050565b60006060820190506129e36000830184612977565b92915050565b6129f281612601565b82525050565b6000602082019050612a0d60008301846129e9565b92915050565b600060208284031215612a2957612a28612481565b5b6000612a37848285016126d7565b91505092915050565b612a4981612510565b8114612a5457600080fd5b50565b600081359050612a6681612a40565b92915050565b60008060408385031215612a8357612a82612481565b5b6000612a91858286016126d7565b9250506020612aa285828601612a57565b9150509250929050565b600080fd5b600067ffffffffffffffff821115612acc57612acb612731565b5b612ad582612595565b9050602081019050919050565b82818337600083830152505050565b6000612b04612aff84612ab1565b612791565b905082815260208101848484011115612b2057612b1f612aac565b5b612b2b848285612ae2565b509392505050565b600082601f830112612b4857612b4761272c565b5b8135612b58848260208601612af1565b91505092915050565b60008060008060808587031215612b7b57612b7a612481565b5b6000612b89878288016126d7565b9450506020612b9a878288016126d7565b9350506040612bab87828801612622565b925050606085013567ffffffffffffffff811115612bcc57612bcb612486565b5b612bd887828801612b33565b91505092959194509250565b7f4e487b7100000000000000000000000000000000000000000000000000000000600052602160045260246000fd5b60038110612c2457612c23612be4565b5b50565b6000819050612c3582612c13565b919050565b6000612c4582612c27565b9050919050565b612c5581612c3a565b82525050565b6000602082019050612c706000830184612c4c565b92915050565b60008060408385031215612c8d57612c8c612481565b5b6000612c9b858286016126d7565b9250506020612cac858286016126d7565b9150509250929050565b7f4e487b7100000000000000000000000000000000000000000000000000000000600052602260045260246000fd5b60006002820490506001821680612cfd57607f821691505b60208210811415612d1157612d10612cb6565b5b50919050565b7f4552433732313a20617070726f76616c20746f2063757272656e74206f776e6560008201527f7200000000000000000000000000000000000000000000000000000000000000602082015250565b6000612d73602183612551565b9150612d7e82612d17565b604082019050919050565b60006020820190508181036000830152612da281612d66565b9050919050565b7f4552433732313a20617070726f76652063616c6c6572206973206e6f7420746f60008201527f6b656e206f776e6572206e6f7220617070726f76656420666f7220616c6c0000602082015250565b6000612e05603e83612551565b9150612e1082612da9565b604082019050919050565b60006020820190508181036000830152612e3481612df8565b9050919050565b6000604082019050612e506000830185612696565b612e5d6020830184612696565b9392505050565b7f4552433732313a2063616c6c6572206973206e6f7420746f6b656e206f776e6560008201527f72206e6f7220617070726f766564000000000000000000000000000000000000602082015250565b6000612ec0602e83612551565b9150612ecb82612e64565b604082019050919050565b60006020820190508181036000830152612eef81612eb3565b9050919050565b600081905092915050565b50565b6000612f11600083612ef6565b9150612f1c82612f01565b600082019050919050565b6000612f3282612f04565b9150819050919050565b7f4552433732313a20696e76616c696420746f6b656e2049440000000000000000600082015250565b6000612f72601883612551565b9150612f7d82612f3c565b602082019050919050565b60006020820190508181036000830152612fa181612f65565b9050919050565b7f4552433732313a2061646472657373207a65726f206973206e6f74206120766160008201527f6c6964206f776e65720000000000000000000000000000000000000000000000602082015250565b6000613004602983612551565b915061300f82612fa8565b604082019050919050565b6000602082019050818103600083015261303381612ff7565b9050919050565b6000819050919050565b61304d8161303a565b82525050565b600067ffffffffffffffff82169050919050565b61307081613053565b82525050565b600061ffff82169050919050565b61308d81613076565b82525050565b600063ffffffff82169050919050565b6130ac81613093565b82525050565b600060a0820190506130c76000830188613044565b6130d46020830187613067565b6130e16040830186613084565b6130ee60608301856130a3565b6130fb60808301846130a3565b9695505050505050565b6000815190506131148161260b565b92915050565b6000602082840312156131305761312f612481565b5b600061313e84828501613105565b91505092915050565b7f4e487b7100000000000000000000000000000000000000000000000000000000600052603260045260246000fd5b600081905092915050565b600061318c82612546565b6131968185613176565b93506131a6818560208601612562565b80840191505092915050565b60006131be8285613181565b91506131ca8284613181565b91508190509392505050565b7f4e487b7100000000000000000000000000000000000000000000000000000000600052601160045260246000fd5b600061321082612601565b915061321b83612601565b9250827fffffffffffffffffffffffffffffffffffffffffffffffffffffffffffffffff038211156132505761324f6131d6565b5b828201905092915050565b600061326682612601565b91507fffffffffffffffffffffffffffffffffffffffffffffffffffffffffffffffff821415613299576132986131d6565b5b600182019050919050565b7f4f776e61626c653a206e6577206f776e657220697320746865207a65726f206160008201527f6464726573730000000000000000000000000000000000000000000000000000602082015250565b6000613300602683612551565b915061330b826132a4565b604082019050919050565b6000602082019050818103600083015261332f816132f3565b9050919050565b7f4e487b7100000000000000000000000000000000000000000000000000000000600052601260045260246000fd5b600061337082612601565b915061337b83612601565b92508261338b5761338a613336565b5b828206905092915050565b60006040820190506133ab6000830185612c4c565b6133b86020830184612696565b9392505050565b7f4552433732313a207472616e736665722066726f6d20696e636f72726563742060008201527f6f776e6572000000000000000000000000000000000000000000000000000000602082015250565b600061341b602583612551565b9150613426826133bf565b604082019050919050565b6000602082019050818103600083015261344a8161340e565b9050919050565b7f4552433732313a207472616e7366657220746f20746865207a65726f2061646460008201527f7265737300000000000000000000000000000000000000000000000000000000602082015250565b60006134ad602483612551565b91506134b882613451565b604082019050919050565b600060208201905081810360008301526134dc816134a0565b9050919050565b60006134ee82612601565b91506134f983612601565b92508282101561350c5761350b6131d6565b5b828203905092915050565b7f4f776e61626c653a2063616c6c6572206973206e6f7420746865206f776e6572600082015250565b600061354d602083612551565b915061355882613517565b602082019050919050565b6000602082019050818103600083015261357c81613540565b9050919050565b7f4552433732313a20617070726f766520746f2063616c6c657200000000000000600082015250565b60006135b9601983612551565b91506135c482613583565b602082019050919050565b600060208201905081810360008301526135e8816135ac565b9050919050565b7f4552433732313a207472616e7366657220746f206e6f6e20455243373231526560008201527f63656976657220696d706c656d656e7465720000000000000000000000000000602082015250565b600061364b603283612551565b9150613656826135ef565b604082019050919050565b6000602082019050818103600083015261367a8161363e565b9050919050565b7f45524337323155524953746f726167653a2055524920736574206f66206e6f6e60008201527f6578697374656e7420746f6b656e000000000000000000000000000000000000602082015250565b60006136dd602e83612551565b91506136e882613681565b604082019050919050565b6000602082019050818103600083015261370c816136d0565b9050919050565b600081519050919050565b600082825260208201905092915050565b600061373a82613713565b613744818561371e565b9350613754818560208601612562565b61375d81612595565b840191505092915050565b600060808201905061377d6000830187612696565b61378a6020830186612696565b61379760408301856129e9565b81810360608301526137a9818461372f565b905095945050505050565b6000815190506137c3816124b7565b92915050565b6000602082840312156137df576137de612481565b5b60006137ed848285016137b4565b91505092915050565b600061380182612601565b915061380c83612601565b92508261381c5761381b613336565b5b828204905092915050565b7f4552433732313a206d696e7420746f20746865207a65726f2061646472657373600082015250565b600061385d602083612551565b915061386882613827565b602082019050919050565b6000602082019050818103600083015261388c81613850565b9050919050565b7f4552433732313a20746f6b656e20616c7265616479206d696e74656400000000600082015250565b60006138c9601c83612551565b91506138d482613893565b602082019050919050565b600060208201905081810360008301526138f8816138bc565b905091905056fea264697066735822122087495744ee1a15f5757f9854fce6b16002bb9fd9ab788399770fe35820c6776064736f6c63430008080033",
  "linkReferences": {},
  "deployedLinkReferences": {}
}